{
  "contractName": "Voting",
  "abi": [
    {
      "anonymous": false,
      "inputs": [
        {
          "indexed": true,
          "internalType": "address",
          "name": "previousOwner",
          "type": "address"
        },
        {
          "indexed": true,
          "internalType": "address",
          "name": "newOwner",
          "type": "address"
        }
      ],
      "name": "OwnershipTransferred",
      "type": "event"
    },
    {
      "anonymous": false,
      "inputs": [
        {
          "indexed": false,
          "internalType": "uint256",
          "name": "proposalId",
          "type": "uint256"
        }
      ],
      "name": "ProposalRegistered",
      "type": "event"
    },
    {
      "anonymous": false,
      "inputs": [
        {
          "indexed": false,
          "internalType": "address",
          "name": "voter",
          "type": "address"
        },
        {
          "indexed": false,
          "internalType": "uint256",
          "name": "proposalId",
          "type": "uint256"
        }
      ],
      "name": "Voted",
      "type": "event"
    },
    {
      "anonymous": false,
      "inputs": [
        {
          "indexed": false,
          "internalType": "address",
          "name": "voterAddress",
          "type": "address"
        }
      ],
      "name": "VoterRegistered",
      "type": "event"
    },
    {
      "anonymous": false,
      "inputs": [
        {
          "indexed": false,
          "internalType": "enum Voting.WorkflowStatus",
          "name": "previousStatus",
          "type": "uint8"
        },
        {
          "indexed": false,
          "internalType": "enum Voting.WorkflowStatus",
          "name": "newStatus",
          "type": "uint8"
        }
      ],
      "name": "WorkflowStatusChange",
      "type": "event"
    },
    {
      "inputs": [],
      "name": "owner",
      "outputs": [
        {
          "internalType": "address",
          "name": "",
          "type": "address"
        }
      ],
      "stateMutability": "view",
      "type": "function",
      "constant": true
    },
    {
      "inputs": [
        {
          "internalType": "uint256",
          "name": "",
          "type": "uint256"
        }
      ],
      "name": "proposals",
      "outputs": [
        {
          "internalType": "string",
          "name": "description",
          "type": "string"
        },
        {
          "internalType": "uint256",
          "name": "voteCount",
          "type": "uint256"
        }
      ],
      "stateMutability": "view",
      "type": "function",
      "constant": true
    },
    {
      "inputs": [],
      "name": "renounceOwnership",
      "outputs": [],
      "stateMutability": "nonpayable",
      "type": "function"
    },
    {
      "inputs": [],
      "name": "state",
      "outputs": [
        {
          "internalType": "enum Voting.WorkflowStatus",
          "name": "",
          "type": "uint8"
        }
      ],
      "stateMutability": "view",
      "type": "function",
      "constant": true
    },
    {
      "inputs": [
        {
          "internalType": "address",
          "name": "newOwner",
          "type": "address"
        }
      ],
      "name": "transferOwnership",
      "outputs": [],
      "stateMutability": "nonpayable",
      "type": "function"
    },
    {
      "inputs": [
        {
          "internalType": "address",
          "name": "",
          "type": "address"
        }
      ],
      "name": "whiteList",
      "outputs": [
        {
          "internalType": "bool",
          "name": "isRegistered",
          "type": "bool"
        },
        {
          "internalType": "bool",
          "name": "hasVoted",
          "type": "bool"
        },
        {
          "internalType": "uint256",
          "name": "votedProposalId",
          "type": "uint256"
        }
      ],
      "stateMutability": "view",
      "type": "function",
      "constant": true
    },
    {
      "inputs": [
        {
          "internalType": "uint256",
          "name": "",
          "type": "uint256"
        }
      ],
      "name": "winningProposals",
      "outputs": [
        {
          "internalType": "string",
          "name": "description",
          "type": "string"
        },
        {
          "internalType": "uint256",
          "name": "voteCount",
          "type": "uint256"
        }
      ],
      "stateMutability": "view",
      "type": "function",
      "constant": true
    },
    {
      "inputs": [
        {
          "internalType": "address[]",
          "name": "_list",
          "type": "address[]"
        }
      ],
      "name": "registerListVoter",
      "outputs": [],
      "stateMutability": "nonpayable",
      "type": "function"
    },
    {
      "inputs": [],
      "name": "openProposals",
      "outputs": [],
      "stateMutability": "nonpayable",
      "type": "function"
    },
    {
      "inputs": [
        {
          "internalType": "string",
          "name": "_proposal",
          "type": "string"
        }
      ],
      "name": "sendProposal",
      "outputs": [],
      "stateMutability": "nonpayable",
      "type": "function"
    },
    {
      "inputs": [],
      "name": "closeProposals",
      "outputs": [],
      "stateMutability": "nonpayable",
      "type": "function"
    },
    {
      "inputs": [],
      "name": "openVotes",
      "outputs": [],
      "stateMutability": "nonpayable",
      "type": "function"
    },
    {
      "inputs": [
        {
          "internalType": "uint256",
          "name": "_proposalId",
          "type": "uint256"
        }
      ],
      "name": "voteProposal",
      "outputs": [],
      "stateMutability": "nonpayable",
      "type": "function"
    },
    {
      "inputs": [],
      "name": "closeVotes",
      "outputs": [],
      "stateMutability": "nonpayable",
      "type": "function"
    },
    {
      "inputs": [],
      "name": "pickWinner",
      "outputs": [],
      "stateMutability": "nonpayable",
      "type": "function"
    },
    {
      "inputs": [
        {
          "internalType": "address",
          "name": "_idVoter",
          "type": "address"
        }
      ],
      "name": "getVote",
      "outputs": [
        {
          "components": [
            {
              "internalType": "string",
              "name": "description",
              "type": "string"
            },
            {
              "internalType": "uint256",
              "name": "voteCount",
              "type": "uint256"
            }
          ],
          "internalType": "struct Voting.Proposal",
          "name": "",
          "type": "tuple"
        }
      ],
      "stateMutability": "view",
      "type": "function",
      "constant": true
    },
    {
      "inputs": [],
      "name": "getWinner",
      "outputs": [
        {
          "components": [
            {
              "internalType": "string",
              "name": "description",
              "type": "string"
            },
            {
              "internalType": "uint256",
              "name": "voteCount",
              "type": "uint256"
            }
          ],
          "internalType": "struct Voting.Proposal[]",
          "name": "",
          "type": "tuple[]"
        }
      ],
      "stateMutability": "view",
      "type": "function",
      "constant": true
    },
    {
      "inputs": [],
      "name": "getProposals",
      "outputs": [
        {
          "components": [
            {
              "internalType": "string",
              "name": "description",
              "type": "string"
            },
            {
              "internalType": "uint256",
              "name": "voteCount",
              "type": "uint256"
            }
          ],
          "internalType": "struct Voting.Proposal[]",
          "name": "",
          "type": "tuple[]"
        }
      ],
      "stateMutability": "view",
      "type": "function",
      "constant": true
    }
  ],
  "bytecode": "0x60806040523480156200001157600080fd5b5062000032620000266200003860201b60201c565b6200004060201b60201c565b62000104565b600033905090565b60008060009054906101000a900473ffffffffffffffffffffffffffffffffffffffff169050816000806101000a81548173ffffffffffffffffffffffffffffffffffffffff021916908373ffffffffffffffffffffffffffffffffffffffff1602179055508173ffffffffffffffffffffffffffffffffffffffff168173ffffffffffffffffffffffffffffffffffffffff167f8be0079c531659141344cd1fd0a4f28419497f9722a3daafe3b4186f6b6457e060405160405180910390a35050565b612d7d80620001146000396000f3fe608060405234801561001057600080fd5b50600436106101165760003560e01c80638d337b81116100a2578063ab19c8a211610071578063ab19c8a214610299578063c19d93fb146102a3578063e96b3ad5146102c1578063f2fde38b146102dd578063f438dcd8146102f957610116565b80638d337b81146102235780638da5cb5b146102535780638e7ea5b2146102715780638f73f9a01461028f57610116565b80635d495aea116100e95780635d495aea146101a457806362564c48146101ae578063715018a6146101cc578063806d7bd7146101d6578063807896d51461020757610116565b8063013cf08b1461011b5780631cf792ec1461014c578063372c12b1146101565780634546ad0614610188575b600080fd5b61013560048036038101906101309190611a81565b610303565b604051610143929190611b4d565b60405180910390f35b6101546103bf565b005b610170600480360381019061016b9190611bdb565b6104a4565b60405161017f93929190611c23565b60405180910390f35b6101a2600480360381019061019d9190611d8f565b6104e8565b005b6101ac61069c565b005b6101b661091a565b6040516101c39190611f30565b60405180910390f35b6101d4610a15565b005b6101f060048036038101906101eb9190611a81565b610a29565b6040516101fe929190611b4d565b60405180910390f35b610221600480360381019061021c9190611a81565b610ae5565b005b61023d60048036038101906102389190611bdb565b610df6565b60405161024a9190611f8f565b60405180910390f35b61025b6110d2565b6040516102689190611fc0565b60405180910390f35b6102796110fb565b6040516102869190611f30565b60405180910390f35b61029761126b565b005b6102a1611351565b005b6102ab611437565b6040516102b89190612052565b60405180910390f35b6102db60048036038101906102d69190612135565b61144a565b005b6102f760048036038101906102f29190611bdb565b6116ba565b005b61030161173d565b005b6002818154811061031357600080fd5b9060005260206000209060020201600091509050806000018054610336906121ad565b80601f0160208091040260200160405190810160405280929190818152602001828054610362906121ad565b80156103af5780601f10610384576101008083540402835291602001916103af565b820191906000526020600020905b81548152906001019060200180831161039257829003601f168201915b5050505050908060010154905082565b6103c7611823565b600360058111156103db576103da611fdb565b5b600460009054906101000a900460ff1660058111156103fd576103fc611fdb565b5b1461043d576040517f08c379a00000000000000000000000000000000000000000000000000000000081526004016104349061222a565b60405180910390fd5b60048060006101000a81548160ff0219169083600581111561046257610461611fdb565b5b02179055507f0a97a4ee45751e2abf3e4fc8946939630b11b371ea8ae39ccdc3056e98f5cc3f6003600460405161049a92919061224a565b60405180910390a1565b60016020528060005260406000206000915090508060000160009054906101000a900460ff16908060000160019054906101000a900460ff16908060010154905083565b60011515600160003373ffffffffffffffffffffffffffffffffffffffff1673ffffffffffffffffffffffffffffffffffffffff16815260200190815260200160002060000160009054906101000a900460ff1615151461057e576040517f08c379a0000000000000000000000000000000000000000000000000000000008152600401610575906122bf565b60405180910390fd5b6001600581111561059257610591611fdb565b5b600460009054906101000a900460ff1660058111156105b4576105b3611fdb565b5b146105f4576040517f08c379a00000000000000000000000000000000000000000000000000000000081526004016105eb90612351565b60405180910390fd5b60006040518060400160405280838152602001600081525090506002819080600181540180825580915050600190039060005260206000209060020201600090919091909150600082015181600001908161064f919061251d565b506020820151816001015550507f92e393e9b54e2f801d3ea4beb0c5e71a21cc34a5d34b77d0fb8a3aa1650dc18f60028054905060405161069091906125ef565b60405180910390a15050565b6106a4611823565b600460058111156106b8576106b7611fdb565b5b600460009054906101000a900460ff1660058111156106da576106d9611fdb565b5b1461071a576040517f08c379a000000000000000000000000000000000000000000000000000000000815260040161071190612656565b60405180910390fd5b6000805b6002805490508110156108b05781600282815481106107405761073f612676565b5b9060005260206000209060020201600101541115610801576002818154811061076c5761076b612676565b5b90600052602060002090600202016001015491506003600061078e919061196d565b6003600282815481106107a4576107a3612676565b5b90600052602060002090600202019080600181540180825580915050600190039060005260206000209060020201600090919091909150600082018160000190816107ef91906126bb565b5060018201548160010155505061089d565b816002828154811061081657610815612676565b5b9060005260206000209060020201600101540361089c5760036002828154811061084357610842612676565b5b906000526020600020906002020190806001815401808255809150506001900390600052602060002090600202016000909190919091506000820181600001908161088e91906126bb565b506001820154816001015550505b5b80806108a8906127d2565b91505061071e565b506005600460006101000a81548160ff021916908360058111156108d7576108d6611fdb565b5b02179055507f0a97a4ee45751e2abf3e4fc8946939630b11b371ea8ae39ccdc3056e98f5cc3f6004600560405161090f92919061224a565b60405180910390a150565b60606002805480602002602001604051908101604052809291908181526020016000905b82821015610a0c5783829060005260206000209060020201604051806040016040529081600082018054610971906121ad565b80601f016020809104026020016040519081016040528092919081815260200182805461099d906121ad565b80156109ea5780601f106109bf576101008083540402835291602001916109ea565b820191906000526020600020905b8154815290600101906020018083116109cd57829003601f168201915b505050505081526020016001820154815250508152602001906001019061093e565b50505050905090565b610a1d611823565b610a2760006118a1565b565b60038181548110610a3957600080fd5b9060005260206000209060020201600091509050806000018054610a5c906121ad565b80601f0160208091040260200160405190810160405280929190818152602001828054610a88906121ad565b8015610ad55780601f10610aaa57610100808354040283529160200191610ad5565b820191906000526020600020905b815481529060010190602001808311610ab857829003601f168201915b5050505050908060010154905082565b60011515600160003373ffffffffffffffffffffffffffffffffffffffff1673ffffffffffffffffffffffffffffffffffffffff16815260200190815260200160002060000160009054906101000a900460ff16151514610b7b576040517f08c379a0000000000000000000000000000000000000000000000000000000008152600401610b72906122bf565b60405180910390fd5b60036005811115610b8f57610b8e611fdb565b5b600460009054906101000a900460ff166005811115610bb157610bb0611fdb565b5b14610bf1576040517f08c379a0000000000000000000000000000000000000000000000000000000008152600401610be89061222a565b60405180910390fd5b60008110158015610c0757506002805490508111155b610c46576040517f08c379a0000000000000000000000000000000000000000000000000000000008152600401610c3d90612866565b60405180910390fd5b60001515600160003373ffffffffffffffffffffffffffffffffffffffff1673ffffffffffffffffffffffffffffffffffffffff16815260200190815260200160002060000160019054906101000a900460ff16151514610cdc576040517f08c379a0000000000000000000000000000000000000000000000000000000008152600401610cd3906128d2565b60405180910390fd5b60018060003373ffffffffffffffffffffffffffffffffffffffff1673ffffffffffffffffffffffffffffffffffffffff16815260200190815260200160002060000160016101000a81548160ff02191690831515021790555080600160003373ffffffffffffffffffffffffffffffffffffffff1673ffffffffffffffffffffffffffffffffffffffff16815260200190815260200160002060010181905550600160028281548110610d9357610d92612676565b5b90600052602060002090600202016001016000828254610db391906128f2565b925050819055507f4d99b957a2bc29a30ebd96a7be8e68fe50a3c701db28a91436490b7d53870ca43382604051610deb929190612926565b60405180910390a150565b610dfe611991565b60011515600160003373ffffffffffffffffffffffffffffffffffffffff1673ffffffffffffffffffffffffffffffffffffffff16815260200190815260200160002060000160009054906101000a900460ff16151514610e94576040517f08c379a0000000000000000000000000000000000000000000000000000000008152600401610e8b906122bf565b60405180910390fd5b60011515600160008473ffffffffffffffffffffffffffffffffffffffff1673ffffffffffffffffffffffffffffffffffffffff16815260200190815260200160002060000160009054906101000a900460ff16151514610f2a576040517f08c379a0000000000000000000000000000000000000000000000000000000008152600401610f21906129c1565b60405180910390fd5b60011515600160008473ffffffffffffffffffffffffffffffffffffffff1673ffffffffffffffffffffffffffffffffffffffff16815260200190815260200160002060000160019054906101000a900460ff16151514610fc0576040517f08c379a0000000000000000000000000000000000000000000000000000000008152600401610fb790612a2d565b60405180910390fd5b6002600160008473ffffffffffffffffffffffffffffffffffffffff1673ffffffffffffffffffffffffffffffffffffffff168152602001908152602001600020600101548154811061101657611015612676565b5b906000526020600020906002020160405180604001604052908160008201805461103f906121ad565b80601f016020809104026020016040519081016040528092919081815260200182805461106b906121ad565b80156110b85780601f1061108d576101008083540402835291602001916110b8565b820191906000526020600020905b81548152906001019060200180831161109b57829003601f168201915b505050505081526020016001820154815250509050919050565b60008060009054906101000a900473ffffffffffffffffffffffffffffffffffffffff16905090565b60606005808111156111105761110f611fdb565b5b600460009054906101000a900460ff16600581111561113257611131611fdb565b5b14611172576040517f08c379a000000000000000000000000000000000000000000000000000000000815260040161116990612a99565b60405180910390fd5b6003805480602002602001604051908101604052809291908181526020016000905b8282101561126257838290600052602060002090600202016040518060400160405290816000820180546111c7906121ad565b80601f01602080910402602001604051908101604052809291908181526020018280546111f3906121ad565b80156112405780601f1061121557610100808354040283529160200191611240565b820191906000526020600020905b81548152906001019060200180831161122357829003601f168201915b5050505050815260200160018201548152505081526020019060010190611194565b50505050905090565b611273611823565b6001600581111561128757611286611fdb565b5b600460009054906101000a900460ff1660058111156112a9576112a8611fdb565b5b146112e9576040517f08c379a00000000000000000000000000000000000000000000000000000000081526004016112e090612351565b60405180910390fd5b6002600460006101000a81548160ff0219169083600581111561130f5761130e611fdb565b5b02179055507f0a97a4ee45751e2abf3e4fc8946939630b11b371ea8ae39ccdc3056e98f5cc3f6001600260405161134792919061224a565b60405180910390a1565b611359611823565b6002600581111561136d5761136c611fdb565b5b600460009054906101000a900460ff16600581111561138f5761138e611fdb565b5b146113cf576040517f08c379a00000000000000000000000000000000000000000000000000000000081526004016113c690612b2b565b60405180910390fd5b6003600460006101000a81548160ff021916908360058111156113f5576113f4611fdb565b5b02179055507f0a97a4ee45751e2abf3e4fc8946939630b11b371ea8ae39ccdc3056e98f5cc3f6002600360405161142d92919061224a565b60405180910390a1565b600460009054906101000a900460ff1681565b611452611823565b6000815111611496576040517f08c379a000000000000000000000000000000000000000000000000000000000815260040161148d90612b97565b60405180910390fd5b60005b81518110156116b657600073ffffffffffffffffffffffffffffffffffffffff168282815181106114cd576114cc612676565b5b602002602001015173ffffffffffffffffffffffffffffffffffffffff1614806115645750600115156001600084848151811061150d5761150c612676565b5b602002602001015173ffffffffffffffffffffffffffffffffffffffff1673ffffffffffffffffffffffffffffffffffffffff16815260200190815260200160002060000160009054906101000a900460ff161515145b6116a35760018060008484815181106115805761157f612676565b5b602002602001015173ffffffffffffffffffffffffffffffffffffffff1673ffffffffffffffffffffffffffffffffffffffff16815260200190815260200160002060000160006101000a81548160ff0219169083151502179055506000600160008484815181106115f5576115f4612676565b5b602002602001015173ffffffffffffffffffffffffffffffffffffffff1673ffffffffffffffffffffffffffffffffffffffff16815260200190815260200160002060000160016101000a81548160ff0219169083151502179055507fb6be2187d059cc2a55fe29e0e503b566e1e0f8c8780096e185429350acffd3dd82828151811061168557611684612676565b5b602002602001015160405161169a9190611fc0565b60405180910390a15b80806116ae906127d2565b915050611499565b5050565b6116c2611823565b600073ffffffffffffffffffffffffffffffffffffffff168173ffffffffffffffffffffffffffffffffffffffff1603611731576040517f08c379a000000000000000000000000000000000000000000000000000000000815260040161172890612c29565b60405180910390fd5b61173a816118a1565b50565b611745611823565b6000600581111561175957611758611fdb565b5b600460009054906101000a900460ff16600581111561177b5761177a611fdb565b5b146117bb576040517f08c379a00000000000000000000000000000000000000000000000000000000081526004016117b290612cbb565b60405180910390fd5b6001600460006101000a81548160ff021916908360058111156117e1576117e0611fdb565b5b02179055507f0a97a4ee45751e2abf3e4fc8946939630b11b371ea8ae39ccdc3056e98f5cc3f6000600160405161181992919061224a565b60405180910390a1565b61182b611965565b73ffffffffffffffffffffffffffffffffffffffff166118496110d2565b73ffffffffffffffffffffffffffffffffffffffff161461189f576040517f08c379a000000000000000000000000000000000000000000000000000000000815260040161189690612d27565b60405180910390fd5b565b60008060009054906101000a900473ffffffffffffffffffffffffffffffffffffffff169050816000806101000a81548173ffffffffffffffffffffffffffffffffffffffff021916908373ffffffffffffffffffffffffffffffffffffffff1602179055508173ffffffffffffffffffffffffffffffffffffffff168173ffffffffffffffffffffffffffffffffffffffff167f8be0079c531659141344cd1fd0a4f28419497f9722a3daafe3b4186f6b6457e060405160405180910390a35050565b600033905090565b508054600082556002029060005260206000209081019061198e91906119ab565b50565b604051806040016040528060608152602001600081525090565b5b808211156119d657600080820160006119c591906119da565b6001820160009055506002016119ac565b5090565b5080546119e6906121ad565b6000825580601f106119f85750611a17565b601f016020900490600052602060002090810190611a169190611a1a565b5b50565b5b80821115611a33576000816000905550600101611a1b565b5090565b6000604051905090565b600080fd5b600080fd5b6000819050919050565b611a5e81611a4b565b8114611a6957600080fd5b50565b600081359050611a7b81611a55565b92915050565b600060208284031215611a9757611a96611a41565b5b6000611aa584828501611a6c565b91505092915050565b600081519050919050565b600082825260208201905092915050565b60005b83811015611ae8578082015181840152602081019050611acd565b60008484015250505050565b6000601f19601f8301169050919050565b6000611b1082611aae565b611b1a8185611ab9565b9350611b2a818560208601611aca565b611b3381611af4565b840191505092915050565b611b4781611a4b565b82525050565b60006040820190508181036000830152611b678185611b05565b9050611b766020830184611b3e565b9392505050565b600073ffffffffffffffffffffffffffffffffffffffff82169050919050565b6000611ba882611b7d565b9050919050565b611bb881611b9d565b8114611bc357600080fd5b50565b600081359050611bd581611baf565b92915050565b600060208284031215611bf157611bf0611a41565b5b6000611bff84828501611bc6565b91505092915050565b60008115159050919050565b611c1d81611c08565b82525050565b6000606082019050611c386000830186611c14565b611c456020830185611c14565b611c526040830184611b3e565b949350505050565b600080fd5b600080fd5b7f4e487b7100000000000000000000000000000000000000000000000000000000600052604160045260246000fd5b611c9c82611af4565b810181811067ffffffffffffffff82111715611cbb57611cba611c64565b5b80604052505050565b6000611cce611a37565b9050611cda8282611c93565b919050565b600067ffffffffffffffff821115611cfa57611cf9611c64565b5b611d0382611af4565b9050602081019050919050565b82818337600083830152505050565b6000611d32611d2d84611cdf565b611cc4565b905082815260208101848484011115611d4e57611d4d611c5f565b5b611d59848285611d10565b509392505050565b600082601f830112611d7657611d75611c5a565b5b8135611d86848260208601611d1f565b91505092915050565b600060208284031215611da557611da4611a41565b5b600082013567ffffffffffffffff811115611dc357611dc2611a46565b5b611dcf84828501611d61565b91505092915050565b600081519050919050565b600082825260208201905092915050565b6000819050602082019050919050565b600082825260208201905092915050565b6000611e2082611aae565b611e2a8185611e04565b9350611e3a818560208601611aca565b611e4381611af4565b840191505092915050565b611e5781611a4b565b82525050565b60006040830160008301518482036000860152611e7a8282611e15565b9150506020830151611e8f6020860182611e4e565b508091505092915050565b6000611ea68383611e5d565b905092915050565b6000602082019050919050565b6000611ec682611dd8565b611ed08185611de3565b935083602082028501611ee285611df4565b8060005b85811015611f1e5784840389528151611eff8582611e9a565b9450611f0a83611eae565b925060208a01995050600181019050611ee6565b50829750879550505050505092915050565b60006020820190508181036000830152611f4a8184611ebb565b905092915050565b60006040830160008301518482036000860152611f6f8282611e15565b9150506020830151611f846020860182611e4e565b508091505092915050565b60006020820190508181036000830152611fa98184611f52565b905092915050565b611fba81611b9d565b82525050565b6000602082019050611fd56000830184611fb1565b92915050565b7f4e487b7100000000000000000000000000000000000000000000000000000000600052602160045260246000fd5b6006811061201b5761201a611fdb565b5b50565b600081905061202c8261200a565b919050565b600061203c8261201e565b9050919050565b61204c81612031565b82525050565b60006020820190506120676000830184612043565b92915050565b600067ffffffffffffffff82111561208857612087611c64565b5b602082029050602081019050919050565b600080fd5b60006120b16120ac8461206d565b611cc4565b905080838252602082019050602084028301858111156120d4576120d3612099565b5b835b818110156120fd57806120e98882611bc6565b8452602084019350506020810190506120d6565b5050509392505050565b600082601f83011261211c5761211b611c5a565b5b813561212c84826020860161209e565b91505092915050565b60006020828403121561214b5761214a611a41565b5b600082013567ffffffffffffffff81111561216957612168611a46565b5b61217584828501612107565b91505092915050565b7f4e487b7100000000000000000000000000000000000000000000000000000000600052602260045260246000fd5b600060028204905060018216806121c557607f821691505b6020821081036121d8576121d761217e565b5b50919050565b7f54686520766f74696e672073657373696f6e2069736e2774206f70656e656400600082015250565b6000612214601f83611ab9565b915061221f826121de565b602082019050919050565b6000602082019050818103600083015261224381612207565b9050919050565b600060408201905061225f6000830185612043565b61226c6020830184612043565b9392505050565b7f596f75277265206e6f742061207265676973746572656420766f746572000000600082015250565b60006122a9601d83611ab9565b91506122b482612273565b602082019050919050565b600060208201905081810360008301526122d88161229c565b9050919050565b7f5468652070726f706f73616c7320726567697374726174696f6e2069736e277460008201527f206f70656e656400000000000000000000000000000000000000000000000000602082015250565b600061233b602783611ab9565b9150612346826122df565b604082019050919050565b6000602082019050818103600083015261236a8161232e565b9050919050565b60008190508160005260206000209050919050565b60006020601f8301049050919050565b600082821b905092915050565b6000600883026123d37fffffffffffffffffffffffffffffffffffffffffffffffffffffffffffffffff82612396565b6123dd8683612396565b95508019841693508086168417925050509392505050565b6000819050919050565b600061241a61241561241084611a4b565b6123f5565b611a4b565b9050919050565b6000819050919050565b612434836123ff565b61244861244082612421565b8484546123a3565b825550505050565b600090565b61245d612450565b61246881848461242b565b505050565b5b8181101561248c57612481600082612455565b60018101905061246e565b5050565b601f8211156124d1576124a281612371565b6124ab84612386565b810160208510156124ba578190505b6124ce6124c685612386565b83018261246d565b50505b505050565b600082821c905092915050565b60006124f4600019846008026124d6565b1980831691505092915050565b600061250d83836124e3565b9150826002028217905092915050565b61252682611aae565b67ffffffffffffffff81111561253f5761253e611c64565b5b61254982546121ad565b612554828285612490565b600060209050601f8311600181146125875760008415612575578287015190505b61257f8582612501565b8655506125e7565b601f19841661259586612371565b60005b828110156125bd57848901518255600182019150602085019450602081019050612598565b868310156125da57848901516125d6601f8916826124e3565b8355505b6001600288020188555050505b505050505050565b60006020820190506126046000830184611b3e565b92915050565b7f54686520766f74696e672073657373696f6e2069736e277420636c6f73656400600082015250565b6000612640601f83611ab9565b915061264b8261260a565b602082019050919050565b6000602082019050818103600083015261266f81612633565b9050919050565b7f4e487b7100000000000000000000000000000000000000000000000000000000600052603260045260246000fd5b6000815490506126b4816121ad565b9050919050565b8181036126c95750506127a1565b6126d2826126a5565b67ffffffffffffffff8111156126eb576126ea611c64565b5b6126f582546121ad565b612700828285612490565b6000601f83116001811461272f576000841561271d578287015490505b6127278582612501565b86555061279a565b601f19841661273d87612371565b965061274886612371565b60005b828110156127705784890154825560018201915060018501945060208101905061274b565b8683101561278d5784890154612789601f8916826124e3565b8355505b6001600288020188555050505b5050505050505b565b7f4e487b7100000000000000000000000000000000000000000000000000000000600052601160045260246000fd5b60006127dd82611a4b565b91507fffffffffffffffffffffffffffffffffffffffffffffffffffffffffffffffff820361280f5761280e6127a3565b5b600182019050919050565b7f546869732070726f706f73616c20646f65736e27742065786973740000000000600082015250565b6000612850601b83611ab9565b915061285b8261281a565b602082019050919050565b6000602082019050818103600083015261287f81612843565b9050919050565b7f596f7520616c726561647920766f746564000000000000000000000000000000600082015250565b60006128bc601183611ab9565b91506128c782612886565b602082019050919050565b600060208201905081810360008301526128eb816128af565b9050919050565b60006128fd82611a4b565b915061290883611a4b565b92508282019050808211156129205761291f6127a3565b5b92915050565b600060408201905061293b6000830185611fb1565b6129486020830184611b3e565b9392505050565b7f5468697320706572736f6e2069736e277420612072656769737465726564207660008201527f6f74657200000000000000000000000000000000000000000000000000000000602082015250565b60006129ab602483611ab9565b91506129b68261294f565b604082019050919050565b600060208201905081810360008301526129da8161299e565b9050919050565b7f5468697320706572736f6e20686176656e277420766f74656400000000000000600082015250565b6000612a17601983611ab9565b9150612a22826129e1565b602082019050919050565b60006020820190508181036000830152612a4681612a0a565b9050919050565b7f54686520766f74657320686176656e2774206265656e2074616c6c6965642021600082015250565b6000612a83602083611ab9565b9150612a8e82612a4d565b602082019050919050565b60006020820190508181036000830152612ab281612a76565b9050919050565b7f5468652070726f706f73616c7320726567697374726174696f6e2069736e277460008201527f20636c6f73656400000000000000000000000000000000000000000000000000602082015250565b6000612b15602783611ab9565b9150612b2082612ab9565b604082019050919050565b60006020820190508181036000830152612b4481612b08565b9050919050565b7f546865206c69737420697320656d707479202100000000000000000000000000600082015250565b6000612b81601383611ab9565b9150612b8c82612b4b565b602082019050919050565b60006020820190508181036000830152612bb081612b74565b9050919050565b7f4f776e61626c653a206e6577206f776e657220697320746865207a65726f206160008201527f6464726573730000000000000000000000000000000000000000000000000000602082015250565b6000612c13602683611ab9565b9150612c1e82612bb7565b604082019050919050565b60006020820190508181036000830152612c4281612c06565b9050919050565b7f54686520766f7465727320726567697374726174696f6e2069736e277420636c60008201527f6f73656400000000000000000000000000000000000000000000000000000000602082015250565b6000612ca5602483611ab9565b9150612cb082612c49565b604082019050919050565b60006020820190508181036000830152612cd481612c98565b9050919050565b7f4f776e61626c653a2063616c6c6572206973206e6f7420746865206f776e6572600082015250565b6000612d11602083611ab9565b9150612d1c82612cdb565b602082019050919050565b60006020820190508181036000830152612d4081612d04565b905091905056fea2646970667358221220843993c32744db8e12a86001298e7f8d845234a51093136173c8f57e7befaa1564736f6c63430008110033",
  "immutableReferences": {},
  "source": "// SPDX-License-Identifier: MIT\npragma solidity ^0.8.17;\n\nimport \"@openzeppelin/contracts/access/Ownable.sol\";\n\ncontract Voting is Ownable{\n\n    struct Voter {\n        bool isRegistered;\n        bool hasVoted;\n        uint256 votedProposalId;\n    }\n\n    mapping(address=> Voter) public whiteList; // mapping des voters\n\n    struct Proposal {\n        string description;\n        uint256 voteCount;\n    }\n\n    Proposal[] public proposals;  // Array contenant les propositions\n    Proposal[] public winningProposals;   // Array contenant la(es) proposition(s) gagnante(s)\n\n    enum WorkflowStatus {\n        RegisteringVoters,\n        ProposalsRegistrationStarted,\n        ProposalsRegistrationEnded,\n        VotingSessionStarted,\n        VotingSessionEnded,\n        VotesTallied\n    }\n\n    WorkflowStatus public state;  // Etat du contrat \n\n    event VoterRegistered(address voterAddress); \n    event WorkflowStatusChange(WorkflowStatus previousStatus, WorkflowStatus newStatus);\n    event ProposalRegistered(uint proposalId);\n    event Voted (address voter, uint proposalId);\n\n    modifier onlyWhiteListed{\n        require(whiteList[msg.sender].isRegistered==true,\"You're not a registered voter\");\n        _;\n    }\n\n    function registerListVoter(address [] memory _list) public onlyOwner{\n        require(_list.length>0,\"The list is empty !\");\n        for(uint256 i=0;i<_list.length;i++){\n            if(_list[i]==address(0) || whiteList[_list[i]].isRegistered == true ){\n                continue;\n            }else{\n                whiteList[_list[i]].isRegistered = true;\n                whiteList[_list[i]].hasVoted = false;\n                emit VoterRegistered(_list[i]);\n            }\n        }\n    }\n\n    function openProposals() public onlyOwner{\n        require(state==WorkflowStatus.RegisteringVoters,\"The voters registration isn't closed\");\n        state=WorkflowStatus.ProposalsRegistrationStarted;\n        emit WorkflowStatusChange(WorkflowStatus.RegisteringVoters,WorkflowStatus.ProposalsRegistrationStarted);\n    }\n\n    function sendProposal(string memory _proposal) public onlyWhiteListed{\n        require(state==WorkflowStatus.ProposalsRegistrationStarted,\"The proposals registration isn't opened\");\n        Proposal memory proposal = Proposal(_proposal,0); \n        proposals.push(proposal);\n        emit ProposalRegistered(proposals.length);\n    } \n\n    function closeProposals() public onlyOwner{\n        require(state==WorkflowStatus.ProposalsRegistrationStarted,\"The proposals registration isn't opened\");\n        state=WorkflowStatus.ProposalsRegistrationEnded;\n        emit WorkflowStatusChange(WorkflowStatus.ProposalsRegistrationStarted,WorkflowStatus.ProposalsRegistrationEnded);\n    }\n\n    function openVotes() public onlyOwner{\n        require(state==WorkflowStatus.ProposalsRegistrationEnded,\"The proposals registration isn't closed\");\n        state=WorkflowStatus.VotingSessionStarted;\n        emit WorkflowStatusChange(WorkflowStatus.ProposalsRegistrationEnded,WorkflowStatus.VotingSessionStarted);\n    }\n\n    function voteProposal(uint256 _proposalId) public onlyWhiteListed{\n        require(state==WorkflowStatus.VotingSessionStarted,\"The voting session isn't opened\");\n        require (_proposalId>=0 && _proposalId<=proposals.length, \"This proposal doesn't exist\");\n        require (whiteList[msg.sender].hasVoted==false, \"You already voted\");\n        whiteList[msg.sender].hasVoted=true;\n        whiteList[msg.sender].votedProposalId=_proposalId;\n        proposals[_proposalId].voteCount+=1;\n        emit Voted (msg.sender,_proposalId);\n    }\n\n    function closeVotes() public onlyOwner{\n        require(state==WorkflowStatus.VotingSessionStarted,\"The voting session isn't opened\");\n        state=WorkflowStatus.VotingSessionEnded;\n        emit WorkflowStatusChange(WorkflowStatus.VotingSessionStarted,WorkflowStatus.VotingSessionEnded);\n    }\n\n    function pickWinner() public onlyOwner {\n        require(state==WorkflowStatus.VotingSessionEnded,\"The voting session isn't closed\");\n        uint256 bestScore =0;\n        for (uint256 i =0; i<proposals.length;i++){\n            if (proposals[i].voteCount>bestScore){\n                bestScore=proposals[i].voteCount;   \n                delete winningProposals;        \n                winningProposals.push(proposals[i]);\n            }else if (proposals[i].voteCount==bestScore){\n                winningProposals.push(proposals[i]);\n            }\n        }\n        state=WorkflowStatus.VotesTallied;\n        emit WorkflowStatusChange(WorkflowStatus.VotingSessionEnded,WorkflowStatus.VotesTallied);\n    }\n\n    function getVote(address _idVoter) public view onlyWhiteListed returns(Proposal memory){\n        require(whiteList[_idVoter].isRegistered==true,\"This person isn't a registered voter\");\n        require(whiteList[_idVoter].hasVoted==true, \"This person haven't voted\");\n        return proposals[whiteList[_idVoter].votedProposalId];\n    }\n\n    function getWinner() public view returns(Proposal[] memory){\n        require(state==WorkflowStatus.VotesTallied,\"The votes haven't been tallied !\");\n        return winningProposals;\n    }\n\n    function getProposals() public view returns(Proposal[] memory){\n        return proposals;\n    }\n\n}",
  "sourcePath": "/home/goulzer/Projet/truffle/contracts/Voting.sol",
  "compiler": {
    "name": "solc",
    "version": "0.8.17+commit.8df45f5f.Emscripten.clang"
  },
  "schemaVersion": "3.4.10",
  "updatedAt": "2022-11-21T22:54:23.477Z",
  "networkType": "ethereum",
  "devdoc": {
    "kind": "dev",
    "methods": {
      "owner()": {
        "details": "Returns the address of the current owner."
      },
      "renounceOwnership()": {
        "details": "Leaves the contract without owner. It will not be possible to call `onlyOwner` functions anymore. Can only be called by the current owner. NOTE: Renouncing ownership will leave the contract without an owner, thereby removing any functionality that is only available to the owner."
      },
      "transferOwnership(address)": {
        "details": "Transfers ownership of the contract to a new account (`newOwner`). Can only be called by the current owner."
      }
    },
    "version": 1
  },
  "userdoc": {
    "kind": "user",
    "methods": {},
    "version": 1
  }
}